{
  "_format": "hh-sol-artifact-1",
  "contractName": "DexBattle",
  "sourceName": "contracts/DexBattle.sol",
  "abi": [
    {
      "inputs": [],
      "stateMutability": "nonpayable",
      "type": "constructor"
    },
    {
      "anonymous": false,
      "inputs": [
        {
          "indexed": true,
          "internalType": "address",
          "name": "account",
          "type": "address"
        },
        {
          "indexed": true,
          "internalType": "address",
          "name": "operator",
          "type": "address"
        },
        {
          "indexed": false,
          "internalType": "bool",
          "name": "approved",
          "type": "bool"
        }
      ],
      "name": "ApprovalForAll",
      "type": "event"
    },
    {
      "anonymous": false,
      "inputs": [
        {
          "indexed": true,
          "internalType": "address",
          "name": "previousOwner",
          "type": "address"
        },
        {
          "indexed": true,
          "internalType": "address",
          "name": "newOwner",
          "type": "address"
        }
      ],
      "name": "OwnershipTransferred",
      "type": "event"
    },
    {
      "anonymous": false,
      "inputs": [
        {
          "indexed": false,
          "internalType": "address",
          "name": "account",
          "type": "address"
        }
      ],
      "name": "Paused",
      "type": "event"
    },
    {
      "anonymous": false,
      "inputs": [
        {
          "indexed": true,
          "internalType": "address",
          "name": "operator",
          "type": "address"
        },
        {
          "indexed": true,
          "internalType": "address",
          "name": "from",
          "type": "address"
        },
        {
          "indexed": true,
          "internalType": "address",
          "name": "to",
          "type": "address"
        },
        {
          "indexed": false,
          "internalType": "uint256[]",
          "name": "ids",
          "type": "uint256[]"
        },
        {
          "indexed": false,
          "internalType": "uint256[]",
          "name": "values",
          "type": "uint256[]"
        }
      ],
      "name": "TransferBatch",
      "type": "event"
    },
    {
      "anonymous": false,
      "inputs": [
        {
          "indexed": true,
          "internalType": "address",
          "name": "operator",
          "type": "address"
        },
        {
          "indexed": true,
          "internalType": "address",
          "name": "from",
          "type": "address"
        },
        {
          "indexed": true,
          "internalType": "address",
          "name": "to",
          "type": "address"
        },
        {
          "indexed": false,
          "internalType": "uint256",
          "name": "id",
          "type": "uint256"
        },
        {
          "indexed": false,
          "internalType": "uint256",
          "name": "value",
          "type": "uint256"
        }
      ],
      "name": "TransferSingle",
      "type": "event"
    },
    {
      "anonymous": false,
      "inputs": [
        {
          "indexed": false,
          "internalType": "string",
          "name": "value",
          "type": "string"
        },
        {
          "indexed": true,
          "internalType": "uint256",
          "name": "id",
          "type": "uint256"
        }
      ],
      "name": "URI",
      "type": "event"
    },
    {
      "anonymous": false,
      "inputs": [
        {
          "indexed": false,
          "internalType": "address",
          "name": "account",
          "type": "address"
        }
      ],
      "name": "Unpaused",
      "type": "event"
    },
    {
      "inputs": [],
      "name": "Common_items_cost",
      "outputs": [
        {
          "internalType": "uint256",
          "name": "",
          "type": "uint256"
        }
      ],
      "stateMutability": "view",
      "type": "function"
    },
    {
      "inputs": [],
      "name": "Epic_items_cost",
      "outputs": [
        {
          "internalType": "uint256",
          "name": "",
          "type": "uint256"
        }
      ],
      "stateMutability": "view",
      "type": "function"
    },
    {
      "inputs": [],
      "name": "Leader_items_cost",
      "outputs": [
        {
          "internalType": "uint256",
          "name": "",
          "type": "uint256"
        }
      ],
      "stateMutability": "view",
      "type": "function"
    },
    {
      "inputs": [],
      "name": "Legendary_items_cost",
      "outputs": [
        {
          "internalType": "uint256",
          "name": "",
          "type": "uint256"
        }
      ],
      "stateMutability": "view",
      "type": "function"
    },
    {
      "inputs": [],
      "name": "Rare_items_cost",
      "outputs": [
        {
          "internalType": "uint256",
          "name": "",
          "type": "uint256"
        }
      ],
      "stateMutability": "view",
      "type": "function"
    },
    {
      "inputs": [],
      "name": "Uncommon_items_cost",
      "outputs": [
        {
          "internalType": "uint256",
          "name": "",
          "type": "uint256"
        }
      ],
      "stateMutability": "view",
      "type": "function"
    },
    {
      "inputs": [
        {
          "internalType": "address",
          "name": "account",
          "type": "address"
        },
        {
          "internalType": "uint256",
          "name": "id",
          "type": "uint256"
        }
      ],
      "name": "balanceOf",
      "outputs": [
        {
          "internalType": "uint256",
          "name": "",
          "type": "uint256"
        }
      ],
      "stateMutability": "view",
      "type": "function"
    },
    {
      "inputs": [
        {
          "internalType": "address[]",
          "name": "accounts",
          "type": "address[]"
        },
        {
          "internalType": "uint256[]",
          "name": "ids",
          "type": "uint256[]"
        }
      ],
      "name": "balanceOfBatch",
      "outputs": [
        {
          "internalType": "uint256[]",
          "name": "",
          "type": "uint256[]"
        }
      ],
      "stateMutability": "view",
      "type": "function"
    },
    {
      "inputs": [
        {
          "internalType": "uint256",
          "name": "id",
          "type": "uint256"
        }
      ],
      "name": "exists",
      "outputs": [
        {
          "internalType": "bool",
          "name": "",
          "type": "bool"
        }
      ],
      "stateMutability": "view",
      "type": "function"
    },
    {
      "inputs": [
        {
          "internalType": "address",
          "name": "account",
          "type": "address"
        },
        {
          "internalType": "address",
          "name": "operator",
          "type": "address"
        }
      ],
      "name": "isApprovedForAll",
      "outputs": [
        {
          "internalType": "bool",
          "name": "",
          "type": "bool"
        }
      ],
      "stateMutability": "view",
      "type": "function"
    },
    {
      "inputs": [],
      "name": "maxCommonSupply",
      "outputs": [
        {
          "internalType": "uint256",
          "name": "",
          "type": "uint256"
        }
      ],
      "stateMutability": "view",
      "type": "function"
    },
    {
      "inputs": [],
      "name": "maxEpicSupply",
      "outputs": [
        {
          "internalType": "uint256",
          "name": "",
          "type": "uint256"
        }
      ],
      "stateMutability": "view",
      "type": "function"
    },
    {
      "inputs": [],
      "name": "maxLeaderSupply",
      "outputs": [
        {
          "internalType": "uint256",
          "name": "",
          "type": "uint256"
        }
      ],
      "stateMutability": "view",
      "type": "function"
    },
    {
      "inputs": [],
      "name": "maxLegendarySupply",
      "outputs": [
        {
          "internalType": "uint256",
          "name": "",
          "type": "uint256"
        }
      ],
      "stateMutability": "view",
      "type": "function"
    },
    {
      "inputs": [],
      "name": "maxRareSupply",
      "outputs": [
        {
          "internalType": "uint256",
          "name": "",
          "type": "uint256"
        }
      ],
      "stateMutability": "view",
      "type": "function"
    },
    {
      "inputs": [],
      "name": "maxUncommonSupply",
      "outputs": [
        {
          "internalType": "uint256",
          "name": "",
          "type": "uint256"
        }
      ],
      "stateMutability": "view",
      "type": "function"
    },
    {
      "inputs": [
        {
          "internalType": "uint256",
          "name": "id",
          "type": "uint256"
        }
      ],
      "name": "mint",
      "outputs": [],
      "stateMutability": "payable",
      "type": "function"
    },
    {
      "inputs": [],
      "name": "owner",
      "outputs": [
        {
          "internalType": "address",
          "name": "",
          "type": "address"
        }
      ],
      "stateMutability": "view",
      "type": "function"
    },
    {
      "inputs": [],
      "name": "pause",
      "outputs": [],
      "stateMutability": "nonpayable",
      "type": "function"
    },
    {
      "inputs": [],
      "name": "paused",
      "outputs": [
        {
          "internalType": "bool",
          "name": "",
          "type": "bool"
        }
      ],
      "stateMutability": "view",
      "type": "function"
    },
    {
      "inputs": [],
      "name": "renounceOwnership",
      "outputs": [],
      "stateMutability": "nonpayable",
      "type": "function"
    },
    {
      "inputs": [
        {
          "internalType": "address",
          "name": "from",
          "type": "address"
        },
        {
          "internalType": "address",
          "name": "to",
          "type": "address"
        },
        {
          "internalType": "uint256[]",
          "name": "ids",
          "type": "uint256[]"
        },
        {
          "internalType": "uint256[]",
          "name": "amounts",
          "type": "uint256[]"
        },
        {
          "internalType": "bytes",
          "name": "data",
          "type": "bytes"
        }
      ],
      "name": "safeBatchTransferFrom",
      "outputs": [],
      "stateMutability": "nonpayable",
      "type": "function"
    },
    {
      "inputs": [
        {
          "internalType": "address",
          "name": "from",
          "type": "address"
        },
        {
          "internalType": "address",
          "name": "to",
          "type": "address"
        },
        {
          "internalType": "uint256",
          "name": "id",
          "type": "uint256"
        },
        {
          "internalType": "uint256",
          "name": "amount",
          "type": "uint256"
        },
        {
          "internalType": "bytes",
          "name": "data",
          "type": "bytes"
        }
      ],
      "name": "safeTransferFrom",
      "outputs": [],
      "stateMutability": "nonpayable",
      "type": "function"
    },
    {
      "inputs": [
        {
          "internalType": "address",
          "name": "operator",
          "type": "address"
        },
        {
          "internalType": "bool",
          "name": "approved",
          "type": "bool"
        }
      ],
      "name": "setApprovalForAll",
      "outputs": [],
      "stateMutability": "nonpayable",
      "type": "function"
    },
    {
      "inputs": [
        {
          "internalType": "uint256",
          "name": "_newsupply",
          "type": "uint256"
        }
      ],
      "name": "setMaxCommonSupply",
      "outputs": [],
      "stateMutability": "nonpayable",
      "type": "function"
    },
    {
      "inputs": [
        {
          "internalType": "uint256",
          "name": "_newsupply",
          "type": "uint256"
        }
      ],
      "name": "setMaxEpicSupply",
      "outputs": [],
      "stateMutability": "nonpayable",
      "type": "function"
    },
    {
      "inputs": [
        {
          "internalType": "uint256",
          "name": "_newsupply",
          "type": "uint256"
        }
      ],
      "name": "setMaxLegendarySupply",
      "outputs": [],
      "stateMutability": "nonpayable",
      "type": "function"
    },
    {
      "inputs": [
        {
          "internalType": "uint256",
          "name": "_newsupply",
          "type": "uint256"
        }
      ],
      "name": "setMaxRareSupply",
      "outputs": [],
      "stateMutability": "nonpayable",
      "type": "function"
    },
    {
      "inputs": [
        {
          "internalType": "uint256",
          "name": "_newsupply",
          "type": "uint256"
        }
      ],
      "name": "setMaxUncommonSupply",
      "outputs": [],
      "stateMutability": "nonpayable",
      "type": "function"
    },
    {
      "inputs": [
        {
          "internalType": "uint256",
          "name": "_newsupply",
          "type": "uint256"
        }
      ],
      "name": "setMaxleaderSupply",
      "outputs": [],
      "stateMutability": "nonpayable",
      "type": "function"
    },
    {
      "inputs": [
        {
          "internalType": "string",
          "name": "newuri",
          "type": "string"
        }
      ],
      "name": "setURI",
      "outputs": [],
      "stateMutability": "nonpayable",
      "type": "function"
    },
    {
      "inputs": [
        {
          "internalType": "uint256",
          "name": "_newcost",
          "type": "uint256"
        }
      ],
      "name": "set_Common_items_cost",
      "outputs": [],
      "stateMutability": "nonpayable",
      "type": "function"
    },
    {
      "inputs": [
        {
          "internalType": "uint256",
          "name": "_newcost",
          "type": "uint256"
        }
      ],
      "name": "set_Epic_items_cost",
      "outputs": [],
      "stateMutability": "nonpayable",
      "type": "function"
    },
    {
      "inputs": [
        {
          "internalType": "uint256",
          "name": "_newcost",
          "type": "uint256"
        }
      ],
      "name": "set_Leader_items_cost",
      "outputs": [],
      "stateMutability": "nonpayable",
      "type": "function"
    },
    {
      "inputs": [
        {
          "internalType": "uint256",
          "name": "_newcost",
          "type": "uint256"
        }
      ],
      "name": "set_Legendary_items_cost",
      "outputs": [],
      "stateMutability": "nonpayable",
      "type": "function"
    },
    {
      "inputs": [
        {
          "internalType": "uint256",
          "name": "_newcost",
          "type": "uint256"
        }
      ],
      "name": "set_Rare_items_cost",
      "outputs": [],
      "stateMutability": "nonpayable",
      "type": "function"
    },
    {
      "inputs": [
        {
          "internalType": "uint256",
          "name": "_newcost",
          "type": "uint256"
        }
      ],
      "name": "set_Uncommon_items_cost",
      "outputs": [],
      "stateMutability": "nonpayable",
      "type": "function"
    },
    {
      "inputs": [
        {
          "internalType": "bytes4",
          "name": "interfaceId",
          "type": "bytes4"
        }
      ],
      "name": "supportsInterface",
      "outputs": [
        {
          "internalType": "bool",
          "name": "",
          "type": "bool"
        }
      ],
      "stateMutability": "view",
      "type": "function"
    },
    {
      "inputs": [
        {
          "internalType": "uint256",
          "name": "id",
          "type": "uint256"
        }
      ],
      "name": "totalSupply",
      "outputs": [
        {
          "internalType": "uint256",
          "name": "",
          "type": "uint256"
        }
      ],
      "stateMutability": "view",
      "type": "function"
    },
    {
      "inputs": [
        {
          "internalType": "address",
          "name": "newOwner",
          "type": "address"
        }
      ],
      "name": "transferOwnership",
      "outputs": [],
      "stateMutability": "nonpayable",
      "type": "function"
    },
    {
      "inputs": [],
      "name": "unpause",
      "outputs": [],
      "stateMutability": "nonpayable",
      "type": "function"
    },
    {
      "inputs": [
        {
          "internalType": "uint256",
          "name": "_id",
          "type": "uint256"
        }
      ],
      "name": "uri",
      "outputs": [
        {
          "internalType": "string",
          "name": "",
          "type": "string"
        }
      ],
      "stateMutability": "view",
      "type": "function"
    },
    {
      "inputs": [],
      "name": "withdraw",
      "outputs": [],
      "stateMutability": "payable",
      "type": "function"
    }
  ],
  "bytecode": "0x60806040526019600555609660065560fa60075561015e6008556101906009556101f4600a556729a2241af62c0000600b55670de0b6b3a7640000600c556706f05b59d3b20000600d5567016345785d8a0000600e5566b1a2bc2ec50000600f55662386f26fc100006010553480156200007857600080fd5b5060405180606001604052806036815260200162002743603691396200009e81620000bd565b50620000aa33620000d6565b6003805460ff60a01b191690556200020b565b8051620000d290600290602084019062000128565b5050565b600380546001600160a01b038381166001600160a01b0319831681179093556040519116919082907f8be0079c531659141344cd1fd0a4f28419497f9722a3daafe3b4186f6b6457e090600090a35050565b8280546200013690620001ce565b90600052602060002090601f0160209004810192826200015a5760008555620001a5565b82601f106200017557805160ff1916838001178555620001a5565b82800160010185558215620001a5579182015b82811115620001a557825182559160200191906001019062000188565b50620001b3929150620001b7565b5090565b5b80821115620001b35760008155600101620001b8565b600181811c90821680620001e357607f821691505b602082108114156200020557634e487b7160e01b600052602260045260246000fd5b50919050565b612528806200021b6000396000f3fe60806040526004361061025b5760003560e01c80638d61e9f111610144578063bf7ee4a5116100b6578063da248c4b1161007a578063da248c4b146106ae578063dd6f1752146106ce578063e985e9c5146106e4578063f242432a1461072d578063f2fde38b1461074d578063fad078df1461076d57600080fd5b8063bf7ee4a514610636578063c8eb86c81461064c578063ca5605b314610662578063ce1d91f414610678578063d02439fe1461069857600080fd5b8063ab24834811610108578063ab24834814610573578063aeb8062114610589578063b78a5d77146105a9578063b7e2698d146105c9578063b7f24320146105e9578063bd85b0391461060957600080fd5b80638d61e9f1146104e25780638da5cb5b146105025780639a41aa731461052a578063a0712d6814610540578063a22cb4651461055357600080fd5b80633f4ba83a116101dd5780635c774f03116101a15780635c774f03146104395780635c975abb146104595780636687152014610478578063715018a6146104985780637814308b146104ad5780638456cb59146104cd57600080fd5b80633f4ba83a1461039c57806340624b79146103b15780634e1273f4146103c75780634f558e79146103f4578063559c039a1461042357600080fd5b806325ba5f561161022457806325ba5f56146103325780632eb2c2d6146103485780633235d397146103685780633ba09b9e1461037e5780633ccfd60b1461039457600080fd5b8062fdd58e1461026057806301ffc9a71461029357806302fe5305146102c35780630e89341c146102e55780631e6b8b8214610312575b600080fd5b34801561026c57600080fd5b5061028061027b366004611e7e565b61078d565b6040519081526020015b60405180910390f35b34801561029f57600080fd5b506102b36102ae366004611f72565b610823565b604051901515815260200161028a565b3480156102cf57600080fd5b506102e36102de366004611faa565b610875565b005b3480156102f157600080fd5b50610305610300366004611ff0565b610889565b60405161028a9190612191565b34801561031e57600080fd5b506102e361032d366004611ff0565b610920565b34801561033e57600080fd5b5061028060085481565b34801561035457600080fd5b506102e3610363366004611d3b565b61092d565b34801561037457600080fd5b5061028060055481565b34801561038a57600080fd5b5061028060075481565b6102e3610979565b3480156103a857600080fd5b506102e36109d6565b3480156103bd57600080fd5b50610280600d5481565b3480156103d357600080fd5b506103e76103e2366004611ea7565b6109e8565b60405161028a9190612150565b34801561040057600080fd5b506102b361040f366004611ff0565b600090815260046020526040902054151590565b34801561042f57600080fd5b5061028060095481565b34801561044557600080fd5b506102e3610454366004611ff0565b610b4a565b34801561046557600080fd5b50600354600160a01b900460ff166102b3565b34801561048457600080fd5b506102e3610493366004611ff0565b610b57565b3480156104a457600080fd5b506102e3610b64565b3480156104b957600080fd5b506102e36104c8366004611ff0565b610b76565b3480156104d957600080fd5b506102e3610b83565b3480156104ee57600080fd5b506102e36104fd366004611ff0565b610b93565b34801561050e57600080fd5b506003546040516001600160a01b03909116815260200161028a565b34801561053657600080fd5b50610280600b5481565b6102e361054e366004611ff0565b610ba0565b34801561055f57600080fd5b506102e361056e366004611e44565b610cdb565b34801561057f57600080fd5b5061028060065481565b34801561059557600080fd5b506102e36105a4366004611ff0565b610cea565b3480156105b557600080fd5b506102e36105c4366004611ff0565b610cf7565b3480156105d557600080fd5b506102e36105e4366004611ff0565b610d04565b3480156105f557600080fd5b506102e3610604366004611ff0565b610d11565b34801561061557600080fd5b50610280610624366004611ff0565b60009081526004602052604090205490565b34801561064257600080fd5b5061028060105481565b34801561065857600080fd5b50610280600e5481565b34801561066e57600080fd5b50610280600f5481565b34801561068457600080fd5b506102e3610693366004611ff0565b610d1e565b3480156106a457600080fd5b50610280600c5481565b3480156106ba57600080fd5b506102e36106c9366004611ff0565b610d2b565b3480156106da57600080fd5b50610280600a5481565b3480156106f057600080fd5b506102b36106ff366004611d09565b6001600160a01b03918216600090815260016020908152604080832093909416825291909152205460ff1690565b34801561073957600080fd5b506102e3610748366004611de1565b610d38565b34801561075957600080fd5b506102e3610768366004611cef565b610d7d565b34801561077957600080fd5b506102e3610788366004611ff0565b610df3565b60006001600160a01b0383166107fd5760405162461bcd60e51b815260206004820152602a60248201527f455243313135353a2061646472657373207a65726f206973206e6f742061207660448201526930b634b21037bbb732b960b11b60648201526084015b60405180910390fd5b506000908152602081815260408083206001600160a01b03949094168352929052205490565b60006001600160e01b03198216636cdb3d1360e11b148061085457506001600160e01b031982166303a24d0760e21b145b8061086f57506301ffc9a760e01b6001600160e01b03198316145b92915050565b61087d610e00565b61088681610e5a565b50565b6000818152600460205260409020546060906108e75760405162461bcd60e51b815260206004820152601860248201527f5552493a20746f6b656e20646f65736e2774206578697374000000000000000060448201526064016107f4565b6108f082610e6d565b6108f983610f01565b60405160200161090a92919061206e565b6040516020818303038152906040529050919050565b610928610e00565b600555565b6001600160a01b038516331480610949575061094985336106ff565b6109655760405162461bcd60e51b81526004016107f4906121a4565b6109728585858585611023565b5050505050565b610981610e00565b604051600090339047908381818185875af1925050503d80600081146109c3576040519150601f19603f3d011682016040523d82523d6000602084013e6109c8565b606091505b505090508061088657600080fd5b6109de610e00565b6109e661122a565b565b60608151835114610a4d5760405162461bcd60e51b815260206004820152602960248201527f455243313135353a206163636f756e747320616e6420696473206c656e677468604482015268040dad2e6dac2e8c6d60bb1b60648201526084016107f4565b6000835167ffffffffffffffff811115610a7757634e487b7160e01b600052604160045260246000fd5b604051908082528060200260200182016040528015610aa0578160200160208202803683370190505b50905060005b8451811015610b4257610b07858281518110610ad257634e487b7160e01b600052603260045260246000fd5b6020026020010151858381518110610afa57634e487b7160e01b600052603260045260246000fd5b602002602001015161078d565b828281518110610b2757634e487b7160e01b600052603260045260246000fd5b6020908102919091010152610b3b816123c9565b9050610aa6565b509392505050565b610b52610e00565b600b55565b610b5f610e00565b600655565b610b6c610e00565b6109e6600061127f565b610b7e610e00565b600f55565b610b8b610e00565b6109e66112d1565b610b9b610e00565b600d55565b60808110610bb957600654601155600c54601255610c2a565b60638110610bd257600754601155600d54601255610c2a565b60408110610beb57600854601155600e54601255610c2a565b60258110610c0457600954601155600f54601255610c2a565b600a8110610c1d57600a54601155601054601255610c2a565b600554601155600b546012555b6011546000828152600460205260409020541115610c775760405162461bcd60e51b815260206004820152600a60248201526915d9481cdbdb191bdd5d60b21b60448201526064016107f4565b601254341015610cbf5760405162461bcd60e51b8152602060048201526013602482015272139bdd08195b9bdd59da08189b98881cd95b9d606a1b60448201526064016107f4565b6108863382600160405180602001604052806000815250611314565b610ce6338383611437565b5050565b610cf2610e00565b600955565b610cff610e00565b600e55565b610d0c610e00565b600a55565b610d19610e00565b600855565b610d26610e00565b600c55565b610d33610e00565b601055565b6001600160a01b038516331480610d545750610d5485336106ff565b610d705760405162461bcd60e51b81526004016107f4906121a4565b6109728585858585611518565b610d85610e00565b6001600160a01b038116610dea5760405162461bcd60e51b815260206004820152602660248201527f4f776e61626c653a206e6577206f776e657220697320746865207a65726f206160448201526564647265737360d01b60648201526084016107f4565b6108868161127f565b610dfb610e00565b600755565b6003546001600160a01b031633146109e65760405162461bcd60e51b815260206004820181905260248201527f4f776e61626c653a2063616c6c6572206973206e6f7420746865206f776e657260448201526064016107f4565b8051610ce6906002906020840190611b42565b606060028054610e7c90612361565b80601f0160208091040260200160405190810160405280929190818152602001828054610ea890612361565b8015610ef55780601f10610eca57610100808354040283529160200191610ef5565b820191906000526020600020905b815481529060010190602001808311610ed857829003601f168201915b50505050509050919050565b606081610f255750506040805180820190915260018152600360fc1b602082015290565b8160005b8115610f4f5780610f39816123c9565b9150610f489050600a83612306565b9150610f29565b60008167ffffffffffffffff811115610f7857634e487b7160e01b600052604160045260246000fd5b6040519080825280601f01601f191660200182016040528015610fa2576020820181803683370190505b5090505b841561101b57610fb760018361231a565b9150610fc4600a866123e4565b610fcf9060306122ee565b60f81b818381518110610ff257634e487b7160e01b600052603260045260246000fd5b60200101906001600160f81b031916908160001a905350611014600a86612306565b9450610fa6565b949350505050565b81518351146110855760405162461bcd60e51b815260206004820152602860248201527f455243313135353a2069647320616e6420616d6f756e7473206c656e677468206044820152670dad2e6dac2e8c6d60c31b60648201526084016107f4565b6001600160a01b0384166110ab5760405162461bcd60e51b81526004016107f49061223b565b336110ba818787878787611650565b60005b84518110156111bc5760008582815181106110e857634e487b7160e01b600052603260045260246000fd5b60200260200101519050600085838151811061111457634e487b7160e01b600052603260045260246000fd5b602090810291909101810151600084815280835260408082206001600160a01b038e1683529093529190912054909150818110156111645760405162461bcd60e51b81526004016107f490612280565b6000838152602081815260408083206001600160a01b038e8116855292528083208585039055908b168252812080548492906111a19084906122ee565b92505081905550505050806111b5906123c9565b90506110bd565b50846001600160a01b0316866001600160a01b0316826001600160a01b03167f4a39dc06d4c0dbc64b70af90fd698a233a518aa5d07e595d983b8c0526c8f7fb878760405161120c929190612163565b60405180910390a4611222818787878787611666565b505050505050565b6112326117d1565b6003805460ff60a01b191690557f5db9ee0a495bf2e6ff9c91a7834c1ba4fdd244a5e8aa4e537bd38aeae4b073aa335b6040516001600160a01b03909116815260200160405180910390a1565b600380546001600160a01b038381166001600160a01b0319831681179093556040519116919082907f8be0079c531659141344cd1fd0a4f28419497f9722a3daafe3b4186f6b6457e090600090a35050565b6112d9611821565b6003805460ff60a01b1916600160a01b1790557f62e78cea01bee320cd4e420270b5ea74000d11b0c9f74754ebdbfc544b05a2586112623390565b6001600160a01b0384166113745760405162461bcd60e51b815260206004820152602160248201527f455243313135353a206d696e7420746f20746865207a65726f206164647265736044820152607360f81b60648201526084016107f4565b3360006113808561186e565b9050600061138d8561186e565b905061139e83600089858589611650565b6000868152602081815260408083206001600160a01b038b168452909152812080548792906113ce9084906122ee565b909155505060408051878152602081018790526001600160a01b03808a1692600092918716917fc3d58168c5ae7397731d063d5bbf3d657854427343f4c083240f7aacaa2d0f62910160405180910390a461142e836000898989896118c7565b50505050505050565b816001600160a01b0316836001600160a01b031614156114ab5760405162461bcd60e51b815260206004820152602960248201527f455243313135353a2073657474696e6720617070726f76616c20737461747573604482015268103337b91039b2b63360b91b60648201526084016107f4565b6001600160a01b03838116600081815260016020908152604080832094871680845294825291829020805460ff191686151590811790915591519182527f17307eab39ab6107e8899845ad3d59bd9653f200f220920489ca2b5937696c31910160405180910390a3505050565b6001600160a01b03841661153e5760405162461bcd60e51b81526004016107f49061223b565b33600061154a8561186e565b905060006115578561186e565b9050611567838989858589611650565b6000868152602081815260408083206001600160a01b038c168452909152902054858110156115a85760405162461bcd60e51b81526004016107f490612280565b6000878152602081815260408083206001600160a01b038d8116855292528083208985039055908a168252812080548892906115e59084906122ee565b909155505060408051888152602081018890526001600160a01b03808b16928c821692918816917fc3d58168c5ae7397731d063d5bbf3d657854427343f4c083240f7aacaa2d0f62910160405180910390a4611645848a8a8a8a8a6118c7565b505050505050505050565b611658611821565b611222868686868686611991565b6001600160a01b0384163b156112225760405163bc197c8160e01b81526001600160a01b0385169063bc197c81906116aa90899089908890889088906004016120ad565b602060405180830381600087803b1580156116c457600080fd5b505af19250505080156116f4575060408051601f3d908101601f191682019092526116f191810190611f8e565b60015b6117a15761170061243a565b806308c379a0141561173a5750611715612452565b80611720575061173c565b8060405162461bcd60e51b81526004016107f49190612191565b505b60405162461bcd60e51b815260206004820152603460248201527f455243313135353a207472616e7366657220746f206e6f6e20455243313135356044820152732932b1b2b4bb32b91034b6b83632b6b2b73a32b960611b60648201526084016107f4565b6001600160e01b0319811663bc197c8160e01b1461142e5760405162461bcd60e51b81526004016107f4906121f3565b600354600160a01b900460ff166109e65760405162461bcd60e51b815260206004820152601460248201527314185d5cd8589b194e881b9bdd081c185d5cd95960621b60448201526064016107f4565b600354600160a01b900460ff16156109e65760405162461bcd60e51b815260206004820152601060248201526f14185d5cd8589b194e881c185d5cd95960821b60448201526064016107f4565b604080516001808252818301909252606091600091906020808301908036833701905050905082816000815181106118b657634e487b7160e01b600052603260045260246000fd5b602090810291909101015292915050565b6001600160a01b0384163b156112225760405163f23a6e6160e01b81526001600160a01b0385169063f23a6e619061190b908990899088908890889060040161210b565b602060405180830381600087803b15801561192557600080fd5b505af1925050508015611955575060408051601f3d908101601f1916820190925261195291810190611f8e565b60015b6119615761170061243a565b6001600160e01b0319811663f23a6e6160e01b1461142e5760405162461bcd60e51b81526004016107f4906121f3565b6001600160a01b038516611a345760005b8351811015611a32578281815181106119cb57634e487b7160e01b600052603260045260246000fd5b6020026020010151600460008684815181106119f757634e487b7160e01b600052603260045260246000fd5b602002602001015181526020019081526020016000206000828254611a1c91906122ee565b90915550611a2b9050816123c9565b90506119a2565b505b6001600160a01b0384166112225760005b835181101561142e576000848281518110611a7057634e487b7160e01b600052603260045260246000fd5b602002602001015190506000848381518110611a9c57634e487b7160e01b600052603260045260246000fd5b6020026020010151905060006004600084815260200190815260200160002054905081811015611b1f5760405162461bcd60e51b815260206004820152602860248201527f455243313135353a206275726e20616d6f756e74206578636565647320746f74604482015267616c537570706c7960c01b60648201526084016107f4565b60009283526004602052604090922091039055611b3b816123c9565b9050611a45565b828054611b4e90612361565b90600052602060002090601f016020900481019282611b705760008555611bb6565b82601f10611b8957805160ff1916838001178555611bb6565b82800160010185558215611bb6579182015b82811115611bb6578251825591602001919060010190611b9b565b50611bc2929150611bc6565b5090565b5b80821115611bc25760008155600101611bc7565b600067ffffffffffffffff831115611bf557611bf5612424565b604051611c0c601f8501601f19166020018261239c565b809150838152848484011115611c2157600080fd5b83836020830137600060208583010152509392505050565b80356001600160a01b0381168114611c5057600080fd5b919050565b600082601f830112611c65578081fd5b81356020611c72826122ca565b604051611c7f828261239c565b8381528281019150858301600585901b87018401881015611c9e578586fd5b855b85811015611cbc57813584529284019290840190600101611ca0565b5090979650505050505050565b600082601f830112611cd9578081fd5b611ce883833560208501611bdb565b9392505050565b600060208284031215611d00578081fd5b611ce882611c39565b60008060408385031215611d1b578081fd5b611d2483611c39565b9150611d3260208401611c39565b90509250929050565b600080600080600060a08688031215611d52578081fd5b611d5b86611c39565b9450611d6960208701611c39565b9350604086013567ffffffffffffffff80821115611d85578283fd5b611d9189838a01611c55565b94506060880135915080821115611da6578283fd5b611db289838a01611c55565b93506080880135915080821115611dc7578283fd5b50611dd488828901611cc9565b9150509295509295909350565b600080600080600060a08688031215611df8578081fd5b611e0186611c39565b9450611e0f60208701611c39565b93506040860135925060608601359150608086013567ffffffffffffffff811115611e38578182fd5b611dd488828901611cc9565b60008060408385031215611e56578182fd5b611e5f83611c39565b915060208301358015158114611e73578182fd5b809150509250929050565b60008060408385031215611e90578182fd5b611e9983611c39565b946020939093013593505050565b60008060408385031215611eb9578182fd5b823567ffffffffffffffff80821115611ed0578384fd5b818501915085601f830112611ee3578384fd5b81356020611ef0826122ca565b604051611efd828261239c565b8381528281019150858301600585901b870184018b1015611f1c578889fd5b8896505b84871015611f4557611f3181611c39565b835260019690960195918301918301611f20565b5096505086013592505080821115611f5b578283fd5b50611f6885828601611c55565b9150509250929050565b600060208284031215611f83578081fd5b8135611ce8816124dc565b600060208284031215611f9f578081fd5b8151611ce8816124dc565b600060208284031215611fbb578081fd5b813567ffffffffffffffff811115611fd1578182fd5b8201601f81018413611fe1578182fd5b61101b84823560208401611bdb565b600060208284031215612001578081fd5b5035919050565b6000815180845260208085019450808401835b838110156120375781518752958201959082019060010161201b565b509495945050505050565b6000815180845261205a816020860160208601612331565b601f01601f19169290920160200192915050565b60008351612080818460208801612331565b835190830190612094818360208801612331565b64173539b7b760d91b9101908152600501949350505050565b6001600160a01b0386811682528516602082015260a0604082018190526000906120d990830186612008565b82810360608401526120eb8186612008565b905082810360808401526120ff8185612042565b98975050505050505050565b6001600160a01b03868116825285166020820152604081018490526060810183905260a06080820181905260009061214590830184612042565b979650505050505050565b602081526000611ce86020830184612008565b6040815260006121766040830185612008565b82810360208401526121888185612008565b95945050505050565b602081526000611ce86020830184612042565b6020808252602f908201527f455243313135353a2063616c6c6572206973206e6f7420746f6b656e206f776e60408201526e195c881b9bdc88185c1c1c9bdd9959608a1b606082015260800190565b60208082526028908201527f455243313135353a204552433131353552656365697665722072656a656374656040820152676420746f6b656e7360c01b606082015260800190565b60208082526025908201527f455243313135353a207472616e7366657220746f20746865207a65726f206164604082015264647265737360d81b606082015260800190565b6020808252602a908201527f455243313135353a20696e73756666696369656e742062616c616e636520666f60408201526939103a3930b739b332b960b11b606082015260800190565b600067ffffffffffffffff8211156122e4576122e4612424565b5060051b60200190565b60008219821115612301576123016123f8565b500190565b6000826123155761231561240e565b500490565b60008282101561232c5761232c6123f8565b500390565b60005b8381101561234c578181015183820152602001612334565b8381111561235b576000848401525b50505050565b600181811c9082168061237557607f821691505b6020821081141561239657634e487b7160e01b600052602260045260246000fd5b50919050565b601f8201601f1916810167ffffffffffffffff811182821017156123c2576123c2612424565b6040525050565b60006000198214156123dd576123dd6123f8565b5060010190565b6000826123f3576123f361240e565b500690565b634e487b7160e01b600052601160045260246000fd5b634e487b7160e01b600052601260045260246000fd5b634e487b7160e01b600052604160045260246000fd5b600060033d111561244f57600481823e5160e01c5b90565b600060443d10156124605790565b6040516003193d81016004833e81513d67ffffffffffffffff816024840111818411171561249057505050505090565b82850191508151818111156124a85750505050505090565b843d87010160208285010111156124c25750505050505090565b6124d16020828601018761239c565b509095945050505050565b6001600160e01b03198116811461088657600080fdfea2646970667358221220fe7a2b6099ae9c900f315d807f28173f1c98768a371255ed3a4001556f55e3fd64736f6c63430008040033697066733a2f2f516d5339685941414162536e697966554a4d78555a7650636d3169526b626d38726a4a6f444e445678756d31654e2f",
  "linkReferences": {},
  "deployedLinkReferences": {}
}